:020000000F2EC1
:10000800FF00030E8301BD000A08BE008A017008C4
:10001800A2007108A1000408A3008C1E69289C2571
:100028007008013A031D6928871000302506031D52
:100038001F2801302406031D282891257008BC00BC
:10004800A40A0319A50A3F283C08723A031D3F2851
:1000580001302402F0000030031C013E2502F100AB
:1000680070082F3ECE0091254E088400700880004D
:10007800A40A0319A50A3C08703A031D48280E3043
:10008800A4000030A50059283C086E3A031D5128E9
:100098000E30A4000030A50059283C08723A031914
:1000A80059280130A4000030A50000302506031DA2
:1000B8005F280E302406031D672887100130A6002C
:1000C8000030A7006828871413282208F0002108A8
:1000D800F100230884003E088A003D0E8300FF0ECD
:0400E8007F0E09007E
:1000EC00831203132230FC00F801F901FA01FB0121
:1000FC00FC030319AC280310FB0CFA0CF90CF80CDC
:10010C00F30CF20CF10CF00C031C7E28FC0303190D
:10011C009E287408F80775080318750FF9077608F8
:10012C000318760FFA0777080318770FFB07822856
:10013C007408F80775080318750FF9077608031883
:0E014C00760FFA0777080318770FFB070800F5
:10015A00A03083120313F0000F30F100F201F30113
:02016A0008008B
:10016C0083120313CD03CD034D08003C0318C328A1
:10017C00CD03000000000000BA28000000000000C1
:06018C0000000000080065
:1001920083120313FB01FA01F901F801A001730DA7
:1001A200F80D7408F8027508031C750FF902760839
:1001B200031C760FFA027708031C770FFB0200017B
:1001C200031C0130A002F30D0730FC00730DF80D83
:1001D200F90DFA0DFB0DA00D7408731C0229F8022B
:1001E2007508031C750FF9027608031C760FFA02D4
:1001F2007708031C770FFB020001031C0130A002E9
:100202001329F80775080318750FF90776080318FC
:10021200760FFA0777080318770FFB070001031818
:100222000130A007F30DFC0BE728720DF80DF90D54
:10023200FA0DFB0DA00D7408731C3129F802750824
:10024200031C750FF9027608031C760FFA02770871
:10025200031C770FFB020001031C0130A00242299C
:10026200F80775080318750FF90776080318760F53
:10027200FA0777080318770FFB070001031801300C
:10028200A007F20D0730FC00720DF80DF90DFA0D02
:10029200FB0DA00D7408721C6029F8027508031C7E
:1002A200750FF9027608031C760FFA027708031C11
:1002B200770FFB020001031C0130A0027129F8072D
:1002C20075080318750FF90776080318760FFA07F1
:1002D20077080318770FFB07000103180130A00706
:1002E200F20DFC0B4529710DF80DF90DFA0DFB0D00
:1002F200A00D7408721C8F29F8027508031C750F73
:10030200F9027608031C760FFA027708031C770FAE
:10031200FB020001031C0130A002A029F8077508A6
:100322000318750FF90776080318760FFA0777088E
:100332000318770FFB07000103180130A007F10D26
:100342000730FC00710DF80DF90DFA0DFB0DA00D33
:100352007408711CBE29F8027508031C750FF90296
:100362007608031C760FFA027708031C770FFB024C
:100372000001031C0130A002CF29F80775080318F9
:10038200750FF90776080318760FFA07770803182E
:10039200770FFB07000103180130A007F10DFC0BDA
:1003A200A329700DF80DF90DFA0DFB0DA00D7408BF
:1003B200711CED29F8027508031C750FF902760805
:1003C200031C760FFA027708031C770FFB02000169
:1003D200031C0130A002FE29F80775080318750FE7
:1003E200F90776080318760FFA0777080318770FCC
:1003F200FB07000103180130A007F00D0730FC00D5
:10040200700DF80DF90DFA0DFB0DA00D7408701C9E
:100412001C2AF8027508031C750FF9027608031CE2
:10042200760FFA027708031C770FFB020001031C08
:100432000130A0022D2AF80775080318750FF90775
:1004420076080318760FFA0777080318770FFB0769
:10045200000103180130A007F00DFC0B012A7018EF
:10046200402A7408F80775080318750FF90776080B
:100472000318760FFA0777080318770FFB070800AF
:1004820083120313F801F9011030FC00710DF80D0D
:10049200F90D7408F8027508031C750FF9020318A8
:1004A200592A7408F80775080318750FF90703101D
:0A04B200F00DF10DFC0B472A0800C5
:1004BC00831603139818642A00005E2A83124108DD
:0404CC00990008008B
:0E04D000831203132B088A002A0882000800FA
:1004DE00AD20E830F4000330F500F601F701762088
:1004EE007008C9007108CA007208CB007308CC00EE
:1004FE004108F4004208F500F601F701C920700822
:10050E00C9007108CA007208CB007308CC007008CD
:10051E00F5007108F6007208F7007308F800F80C81
:10052E00F70CF60CF50CF813F80CF70CF60CF50CA2
:10053E00F8137508F0007608F1007708F2007808D5
:10054E00F300F30CF20CF10CF00CF3137008C50071
:10055E007108C600AD204308F4004408F500F6010A
:10056E00F70176204508F9004608FA00FB01FC0168
:10057E000330F8007908F4007A08F5007B08F600DD
:10058E007C08F70078080319D32AF40DF50DF60D43
:10059E00F70D7410FF3ECA2AC9207008C9007108F1
:1005AE00CA007208CB007308CC000A30F400003089
:1005BE00F5004508F0004608F10041227008C5001C
:1005CE007108C60000307102031DEF2A033070025D
:1005DE000318F22A3F2B2C0884004C08003C031D04
:1005EE00022B4B08003C031D022B4A08003C031D46
:1005FE00022B4908003C03183D2B2D0880044608A9
:10060E000319192BC701C80100304802031D112B15
:10061E00460847020318192BCD01B620C70A031945
:10062E00C80A0B2B4508CD00B6202E0880054608BB
:10063E000319312BC701C80100304802031D292BB5
:10064E00460847020318312BCD01B620C70A0319FD
:10065E00C80A232B4508CD00B6200130C902031C61
:10066E00CA02031CCB02031CCC02F42A2E088005FE
:02067E00080072
:10068000013083120313A8000030A900803029062E
:10069000F00080307002031D4F2B0D30280203182C
:1006A0004B2C28082F3E84000008313A031DD02B24
:1006B00000302906031D5E2B01302806031D622B26
:1006C0000711CF2B00302906031D682B02302806A6
:1006D000031D6C2B8711CF2B00302906031D722BB5
:1006E00003302806031D762B0810CF2B0030290677
:1006F000031D7C2B04302806031D802B8810CF2B74
:1007000000302906031D862B05302806031D8A2B81
:100710000811CF2B00302906031D902B0630280628
:10072000031D942B8811CF2B00302906031D9A2B13
:1007300007302806031D9E2B0712CF2B00302906F9
:10074000031DA42B08302806031DA82B8712CF2BCE
:1007500000302906031DAE2B09302806031DB22BDD
:100760000812CF2B00302906031DB82B0A302806AB
:10077000031DBC2B8812CF2B00302906031DC22B72
:100780000B302806031DC62B0813CF2B003029067B
:10079000031DCC2B0C302806031DCF2B8813472CB0
:1007A00000302906031DD62B01302806031DDA2B45
:1007B0000715472C00302906031DE02B02302806C0
:1007C000031DE42B8715472C00302906031DEA2B57
:1007D00003302806031DEE2B0814472C0030290691
:1007E000031DF42B04302806031DF82B8814472C16
:1007F00000302906031DFE2B05302806031D022CA0
:100800000815472C00302906031D082C0630280641
:10081000031D0C2C8815472C00302906031D122CB3
:1008200007302806031D162C0716472C0030290612
:10083000031D1C2C08302806031D202C8716472C6E
:1008400000302906031D262C09302806031D2A2CFA
:100850000816472C00302906031D302C0A302806C4
:10086000031D342C8816472C00302906031D3A2C12
:100870000B302806031D3E2C0817472C0030290694
:10088000031D442C0C302806031D472C8817A80A8A
:100890000319A90A462B1A30FB005E30FC006E30AB
:1008A000FD00FD0B512CFC0B512CFB0B512C0000BF
:0208B00008003E
:1008B20068228A110A128000840AAA0A0319AB0A62
:0808C200F003031D592C08008E
:1008CA00BE3083120313C1000A30C2002C30C300A9
:0808DA000130C4006F22080088
:1008E200BE3083120313C1000A30C2002C30C30091
:0808F2000130C4006F22080070
:1008FA008312031386170130A8000030A900803044
:10090A002906F00080307002031D8D2C0D3028025C
:10091A0003186A2D00302906031D952C013028067C
:10092A00031DA12C051C9D2C3130C1005E22A02C78
:10093A003030C1005E22662D00302906031DA72C27
:10094A0002302806031DB32C851CAF2C3130C100A0
:10095A005E22B22C3030C1005E22662D003029069C
:10096A00031DB92C03302806031DC52C051DC12CF7
:10097A003130C1005E22C42C3030C1005E22662DA7
:10098A0000302906031DCB2C04302806031DD72C62
:10099A00851DD32C3130C1005E22D62C3030C100E7
:1009AA005E22662D00302906031DDD2C053028063F
:1009BA00031DE92C051EE52C3130C1005E22E82C0E
:1009CA003030C1005E22662D00302906031DEF2C4F
:1009DA0006302806031DFB2C851EF72C3130C1007A
:1009EA005E22FA2C3030C1005E22662D00302906C4
:1009FA00031D012D07302806031D0D2D061C092D88
:100A0A003130C1005E220C2D3030C1005E22662DCD
:100A1A0000302906031D132D08302806031D1F2D3B
:100A2A00861C1B2D3130C1005E221E2D3030C100C4
:100A3A005E22662D00302906031D252D0930280661
:100A4A00031D312D061D2D2D3130C1005E22302DA2
:100A5A003030C1005E22662D00302906031D372D75
:100A6A000A302806031D432D861D3F2D3130C10053
:100A7A005E22422D3030C1005E22662D00302906EA
:100A8A00031D492D0B302806031D552D061E512D19
:100A9A003130C1005E22542D3030C1005E22662DF5
:100AAA0000302906031D5B2D0C302806031D662D18
:100ABA00861E632D3130C1005E22662D3030C100A2
:0E0ACA005E22A80A0319A90A842C86130800CC
:100AD800BE3083120313C1000A30C200FA30C300CB
:100AE800C4016F228230FC00DD30FD00FD0B7A2D41
:100AF800FC0B7A2D00000000BE30C1000A30C20095
:0A0B0800FA30C300C4016F22080098
:100B120083120313C101C201C301C4016F22080081
:100B2200831203131A08F100981C992D1812181633
:060B32007108F00008004C
:0E0B38000030831203138C1A0130F000080005
:100B4600831203133F08AC004008F1000130F000A7
:100B560071080319B22DF00D7010FF3EAC2D700810
:100B6600AD00F0097008AE0080303F0784007008C1
:0A0B76008005841370088005080054
:100B8000831203138817881BC72D0813C82D081755
:100B9000081BCC2D8812CD2D8816881AD12D08124D
:100BA000D22D0816081AD62D8811D72D8815881928
:100BB000DB2D0811DC2D08150819E02D8810E12D1A
:100BC00088148818E52D0810E62D08148716871A52
:100BD000EB2D0712EC2D0716071AF02D8711F12DBA
:100BE00087158719F52D0711F62D0715861387141C
:0E0BF0000130A4000030A500A601A7010800F6
:100BFE008316031398169030831298008316871766
:100C0E00071383128C1E0E2E1A08F000082E0800F1
:100C1E00013083120313A400A501A601A701013020
:100C2E00A800A9018316031788018901FF30031359
:100C3E0085003F3086008130870088018B170B17A7
:100C4E008C16193099001815FF250630BF00063096
:100C5E00C000A325C02500302706031D382E013005
:100C6E002606031D512E3C08703A031D412E6524A5
:100C7E008925502E3C086E3A031D492E86176C2589
:100C8E008925502E402307184E2E71244A2E892571
:100C9E007D24C0250630FB001330FC00AD30FD0076
:100CAE00FD0B572EFC0B572EFB0B572E0000000092
:040CBE00322E602E44
:04400E00E42F000794
:00000001FF
