:020000002029B5
:10000600831603139818092800000328831224086E
:040016009900080045
:0E001A008312031323088A00220882000800C4
:10002800013083120313A0000030A10080302106A4
:10003800F00080307002031D23280D3020020318C1
:100048000329081B2828252800302106031D2E28EF
:1000580001302006031D3A28071C36283130A40039
:10006800032039283030A4000320FF28003021065F
:10007800031D402802302006031D4C28871C4828F1
:100088003130A40003204B283030A4000320FF287F
:1000980000302106031D522803302006031D5E2868
:1000A800071D5A283130A40003205D283030A400F1
:1000B8000320FF2800302106031D64280430200691
:1000C800031D7028871D6C283130A40003206F2879
:1000D8003030A4000320FF2800302106031D7628B5
:1000E80005302006031D8228081C7E283130A40014
:1000F800032081283030A4000320FF280030210687
:10010800031D882806302006031D9428881C902883
:100118003130A400032093283030A4000320FF28A6
:1001280000302106031D9A2807302006031DA62843
:10013800081DA2283130A4000320A5283030A400CF
:100148000320FF2800302106031DAC2808302006B4
:10015800031DB828881DB4283130A4000320B7280F
:100168003030A4000320FF2800302106031DBE28DC
:1001780009302006031DCA28071EC6283130A400EE
:100188000320C9283030A4000320FF2800302106AE
:10019800031DD0280A302006031DDC28871ED82816
:1001A8003130A4000320DB283030A4000320FF28CE
:1001B80000302106031DE2280B302006031DEE281F
:1001C800081EEA283130A4000320ED283030A400AE
:1001D8000320FF2800302106031DF4280C302006D8
:1001E800031DFF28881EFC283130A4000320FF28A7
:1001F8003030A4000320A00A0319A10A1A28080015
:100208000D208A110A128000840AA20A0319A30A7F
:08021800F003031D0429080096
:10022000831603139816903083129800831687174D
:10023000071383128C1E1F291A08F00019290800C1
:1002400083120313A001A1018316031788018901FA
:10025000FF30031385003F308600BF3087007F30BA
:1002600088001930990018151021051C4F29851C8C
:100270004F29051D4F29851D4F29051E4F29851E14
:100280004F29061C4F29861C4F29061D4F29861D04
:100290004F29061E4F29861E4F298817502988137B
:1002A00014200330FB008A30FC005530FD00FD0BAC
:1002B0005729FC0B5729FB0B572900000000352953
:0202C0006029B3
:04400E00E42F000794
:00000001FF
