:02000000BF2916
:10000800FF00030E8301B7000A08B8008A017008D0
:10001800A0000408A1008C1E32280813B82170081B
:10002800013A031D32282408283EB900AD213908B9
:10003800840070088000A40A0319A50A0030250668
:10004800031D28280D302406031D3028081301300D
:10005800A2000030A3003128081712282008F00059
:100068002108840038088A00370E8300FF0E7F0EAF
:0200780009007D
:0E007A008312031336088A003508820008003E
:100088003D208A110A128000840AB50A0319B60AAB
:08009800F003031D44280800D9
:1000A00083160313981690308312980083168717CF
:1000B000071383128C1E5F281A08F00059280800C5
:1000C000013083120313A6000030A70080302706FA
:1000D000F00080307002031D6F280D3026020318D7
:1000E0006B292608283E84000008313A031DF028B9
:1000F00000302706031D7E2801302606031D8228B6
:100100000714EF2800302706031D88280230260632
:10011000031D8C288714EF2800302706031D922822
:1001200003302606031D96280715EF280030270602
:10013000031D9C2804302606031DA0288715EF28E0
:1001400000302706031DA62805302606031DAA2811
:100150000814EF2800302706031DB02806302606B5
:10016000031DB4288814EF2800302706031DBA2881
:1001700007302606031DBE280815EF280030270685
:10018000031DC42808302606031DC8288815EF283B
:1001900000302706031DCE2809302606031DD2286D
:1001A0000716EF2800302706031DD8280A30260638
:1001B000031DDC288716EF2800302706031DE228E0
:1001C0000B302606031DE6280816EF280030270608
:1001D000031DEC280C302606031DEF28881667291E
:1001E00000302706031DF62801302606031DFA28D5
:1001F0000710672900302706031D00290230260654
:10020000031D04298710672900302706031D0A29CA
:1002100003302606031D0E29071167290030270623
:10022000031D142904302606031D18298711672988
:1002300000302706031D1E2905302606031D22292E
:100240000810672900302706031D282906302606D6
:10025000031D2C298810672900302706031D322929
:1002600007302606031D36290811672900302706A6
:10027000031D3C2908302606031D402988116729E3
:1002800000302706031D462909302606031D4A298A
:100290000712672900302706031D50290A30260659
:1002A000031D54298712672900302706031D5A2988
:1002B0000B302606031D5E29081267290030270629
:1002C000031D64290C302606031D67298812A60A1F
:0802D0000319A70A66280800C3
:1002D800831203138712871A7329071274290716C2
:1002E800071A782987117929871587197D29071110
:1002F8007E290715071982298710832987148718EB
:1003080087290710882907148812881A8D29081246
:100318008E290816081A9229881193298815881990
:10032800972908119829081508199C2988109D29CA
:0E03380088148818A1290810A22908140800AA
:100346008312031308170130A4000030A500A20190
:04035600A3010800F7
:10035A00831203131A08F100981CB52918121816EB
:06036A007108F00008001C
:0E0370000030831203138C1A0130F0000800D5
:10037E0083120313A201A3010130A400A5010130D1
:10038E00A600A7018316031788018901FF30031306
:10039E0085003F3086008030870088018B170B1751
:1003AE008C1619309900181550206C21A32100309D
:1003BE002306031DE42901302206031DE8296020CF
:1003CE00A3210330FB008A30FC005530FD00FD0BED
:1003DE00EE29FC0BEE29FB0BEE2900000000DE29B6
:0203EE00F729ED
:04400E00E52F000793
:00000001FF
